:020000040800F2
:10000000B0270020F13D0008E53D0008E73D00086D
:10001000ED3D0008E93D0008EB3D0008EF3D00081C
:10002000EF3D0008EF3D0008EF3D0008EF3D000800
:10003000EF3D0008EF3D00083B2200087323000855
:10004000233700082D3700083737000841370008EC
:100050004B370008553700085F370008693700083C
:10006000733700087D37000887370008913700088C
:100070009B370008A5370008AF370008B9370008DC
:10008000C3370008CD370008D7370008E13700082C
:10009000EB370008F5370008FF370008093800087B
:1000A000133800081D3800082738000831380008C8
:1000B0003B380008453800084F3800085938000818
:1000C000633800086D380008773800088138000868
:1000D0008B380008953800089F380008A9380008B8
:0C00E000B3380008BD380008C73800081D
:1000EC002DE9F04FA1B0824602AE002017461D4606
:1000FC00029170620DF144080AE017F8011B029896
:10010C00D0470290002800F08B82706A401C70620D
:10011C00387808B9706A85E22528EED10020F060A5
:10012C0030617061B061F061306201E040F001005B
:10013C0017F8011F2029F9D023290DD02B2904D021
:10014C002D2906D030290AD00CE040F0020080B2F4
:10015C00EEE740F00400FAE740F00800F7E740F063
:10016C001000F4E72A290DD129680A1D2A600968B4
:10017C00F162002904D5494240F00400F16280B2DA
:10018C007F1C13E00021F1620BE0F16A6FF0004379
:10019C00994205D001EB810302EB43013039F16246
:1001AC007F1C3A78A2F130010A29EED339782E2936
:1001BC0003D04FF0FF31B1621EE017F8011F2A295E
:1001CC0006D129680A1D2A607F1C0968B16213E0F8
:1001DC000021B1620BE0B16A6FF00043994205D087
:1001EC0001EB810302EB43013039B1627F1C3A7899
:1001FC00A2F130010A29EED330860FF6C0303978DF
:10020C0000F0FAFD08B117F8010B8DF83A009DF8D3
:10021C003A00682802BF39786829622005D06C281A
:10022C0004BF38786C2803D171208DF83A007F1CFC
:10023C0011A8B0603978B1F1250023D01C3871D0E9
:10024C00001F02286ED9133800F09780093869D046
:10025C00801E00F02B81401E00F0D480401E02282E
:10026C0060D9001F00F0CE80401F30D0401E00F03F
:10027C008480401E20D0C01E09D0801E7DD0C01EA0
:10028C007BD01BE1F068411CF160252120E128683E
:10029C00011D29600068B26A7060002A02D500F066
:1002AC00BBFD07E0002100F0D3FD00281ABF7168E8
:1002BC00401AB06A30610DE12868011D29600021E7
:1002CC000068CDE9000111A870607821EAE09DF882
:1002DC003A00622818D0682806D06A280BD06C28FF
:1002EC0019D0712807D016E02868011D2960006814
:1002FC00716A0180EEE02A68101D28601268706A2D
:10030C00C117C2E90001E5E02868011D29600068F9
:10031C00716A0170DEE02868011D29600068716A4D
:10032C000160D7E02868C01D20F00700286000F1AC
:10033C0008022A60D0E90023CDE90023002B04D564
:10034C00F068421CF2602D220DE0308E820704D53D
:10035C00F068421CF2602B2205E0C00705D5F0685E
:10036C00421CF260202200F80820F06811AA8018C4
:10037C00706000A800F0E2F9ACE09DF83A006C283F
:10038C0008BF2A6811D0712808BF2A6802D02A68D1
:10039C006A280AD1D21D22F007022A60144604F101
:1003AC0008022A60D4E9002303E0131D2B6000230C
:1003BC001268CDE90023682808BF92B207D06228E2
:1003CC0008BFD2B203D0742818BF7A2802D10023F8
:1003DC00CDE9002396F8300000075FD5DDE9002356
:1003EC00002B08BF002A59D041F02000782855D1A5
:1003FC00F068302200F80820401C421CF26000F823
:10040C0008104BE09DF83A0062280CD0682810D0F8
:10041C006A281AD06C2823D0712816D074281FD0C3
:10042C007A280CD01CE02868021D2A6090F9002064
:10043C001AE02868021D2A60B0F9002014E0286830
:10044C00021D2A60002302680FE02868C01D20F0FE
:10045C000700286000F108022A60D0E9002304E0BC
:10046C002868021D2A600268D317CDE90023002BEF
:10047C0004DAF068421CF2602D220DE0308E820707
:10048C0004D5F068421CF2602B2205E0C00705D5AC
:10049C00F068421CF260202200F80820F06811AAD3
:1004AC008018706000A800F0C0F813E0F068411CE0
:1004BC00F16029680A1D2A60096809E0F068421C8D
:1004CC00F260252200F8082021B1F068421CF2608D
:1004DC0000F80810F06AF168401AB169401A3169E5
:1004EC00401AF169401A7169401A316AA0EB01098E
:1004FC0096F830007F1C400710D420208DF8400067
:10050C00002409E0012310AA00A9504600F03EFC8B
:10051C00002840F08580641C4C45F3DBF4680DF139
:10052C00440B0AE01BF8011B0298D04702900028EC
:10053C0076D0706A401C7062641E002CF2D13020A0
:10054C008DF840004FF0000BB46909E0012310AAAC
:10055C0000A9504600F01AFC002861D10BF1010BE8
:10056C00A345F3DB3469D6F804B00AE01BF8011B91
:10057C000298D0470290002852D0706A401C7062DA
:10058C00641E002CF2D130208DF840004FF0000B8F
:10059C00F46909E0012310AA00A9504600F0F6FB0B
:1005AC0000283DD10BF1010BA345F3DB30697168D9
:1005BC00746900EB010B09E01BF8011B0298D04792
:1005CC00029068B3706A401C7062641E002CF3D1F8
:1005DC0030208DF840004FF0000B346A08E0012306
:1005EC0010AA00A9504600F0D1FBC8B90BF1010BC1
:1005FC00A345F4DB96F8300040077FF589AD202049
:10060C008DF84000002400E0641C4C45BFF680AD22
:10061C00012310AA00A9504600F0B8FB0028F3D023
:10062C004FF0FF3021B0BDE8F08F2DE9FA470646B8
:10063C0082B035690A466F2A08BF082705D041F0F9
:10064C002000782814BF0A271027D6E900013C2483
:10065C0080468946642A18BF692A05D1002903DA25
:10066C00D8F1000869EB4909B9F1000F08BFB8F1DE
:10067C00000F0CD1306B50B9082F3BD196F83800D5
:10068C00000737D530203B2485F83B0032E0CDE91C
:10069C000089FB17404649463A4600F005FCB8462F
:1006AC00A8FB0023DDE90089A8EB02023032A4F19B
:1006BC00010AD2B254463A2A03DB9DF80830513B6A
:1006CC009A180AF8052080465FEA010908BFB8F1BC
:1006DC00000F03D0F06861198842D8D3082F09D1D4
:1006EC0096F83800000705D5605D302802D0641EEE
:1006FC0030206055C4F13C00B0616119F160316B80
:10070C00884207DA081A30624FF6EF71308F0840D2
:10071C00308710E000290ED596F8381001F014013E
:10072C00102908D1716B7269891A326A891A081AF0
:10073C000128A8BF306204B0BDE8F0872DE9F24F64
:10074C0004468EB0D4E90001CDE9020104AE9DF857
:10075C00380040F02000009061280AD0206B00285F
:10076C0048BF062004D404BF0098672801D101209B
:10077C0020636168C1F30A5040F2FF7290421CD1B1
:10078C00080304BF2068002809D10320A0619DF84C
:10079C00380061381A2836D30FF2346108E0032090
:1007AC00A0619DF8380061381A2829D30FF218611E
:1007BC00E068032200F0F0FBB5E1012816DA2046D0
:1007CC0000F025FC012811DB00270020009961298D
:1007DC0020D1E168302201F8012B4A1CE2609DF81F
:1007EC003820612A0CBF782258220FE0626840F250
:1007FC00FE3161F31E52471A62604FF0FF30E5E79D
:10080C000FF2C051D4E70FF2C451D1E70A706169FD
:10081C00891C616110B9002500277BE100986128D3
:10082C0040F09680206B00284CBF2125451CDDE94B
:10083C0002012DB26E1CD4E900890022002300F0C5
:10084C0007FC3ABF89F00040CDE90280CDE902896E
:10085C003F1F8DF810200DF1110801E000F2070880
:10086C00012E32DBDDE902010022002300F008FC3E
:10087C002BD21C2102A800F01BFCDDE9020100F0C8
:10088C009DFCF61F8146012E09DB00F0C3FC0246DD
:10089C000B46DDE9020100F0D5FCCDE9020108F2BE
:1008AC000700072105E009F00F0200F8012D4FEABF
:1008BC002919B9F1010F01DB491EF4D5491E5CBFA2
:1008CC00002200F8012DF9D5C8E70DF11100A8EBB5
:1008DC0000010DF11106A942B8BF0D462DB228003A
:1008EC002FD4884206DA04A9411849780829A8BFF0
:1008FC000F2100DA002104AA821800E06D1E12F804
:10090C000139401E8B42F9D00F2904D104A941189A
:10091C004A78521C4A70002802D504AE6D1C3F1D4B
:10092C002DB2681E0DD481190A783032D2B23A2A0F
:10093C0003DB9DF838303A3B9A1801F80129401E28
:10094C00F2D5206B002840F1E580681E2063E1E0C1
:10095C00DDE902010022002300F07AFB3CBF81F0AC
:10096C000041CDE902013FB247F297507843484924
:10097C00DFF820B190FBF1F73FB2C7F107069246C2
:10098C00012E19DBDDE90289F00707D552465B46DB
:10099C004046494600F016FD804689467610504682
:1009AC00594652465B4600F00DFD82468B46002EA2
:1009BC00EAD1CDE9028921E076429046DFF8D89061
:1009CC0012E0F00707D552465B464046494600F018
:1009DC00F9FC8046894676105046594652465B468D
:1009EC0000F0F0FC82468B46002EEAD1DDE90201D4
:1009FC0042464B4600F0B8FDCDE90201009866284E
:100A0C000CBF07F10A000620216B4518142DA8BF56
:100A1C00132530208DF810000DF11106DFF87C90B5
:100A2C00012D3DDBDDE9020100F0DEFB06F10801E2
:100A3C0004220A23B0FBF3F303EB8306A0EB46007E
:100A4C00303001F8010D0A20B3FBF0F000EB80060A
:100A5C00A3EB4603303301F8013D521EE9D1083DAA
:100A6C0001F10806012DDBDBDDE9020100F0BCFB26
:100A7C0000F0DAFB02460B46DDE9020100F0E2FB76
:100A8C0000224B4600F09EFCCDE90201CAE700BFF4
:100A9C00A0860100000024400000F03F84D797415D
:100AAC000DF11100301A0DF1110602E0401E7F1EEF
:100ABC00761C31783029F9D00099662902D13FB2E1
:100ACC00791C03E065290CBF01210021226B8D18D4
:100ADC002DB2A842B8BF05462DB229001AD48142C6
:100AEC0004DA885D3528A8BF392000DA30208A194D
:100AFC00521E00E06D1E12F80139491E8342F9D0D6
:100B0C00392802D1885D401C8855002902D5761EF3
:100B1C006D1C7F1C3FB29DF8381000972BB23246EB
:100B2C00204600F003F80FB0BDE8F08F2DE9F0433C
:100B3C00054685B01E46D5F8308089461746012EED
:100B4C0002DA01260FF28C2749F02000BDF9304063
:100B5C00662808BF641C17D0672840F0818014F108
:100B6C00040FC0F28380444580F2808095F83800F1
:100B7C00641C000702D44645B8BFB04624B2B8EB9B
:100B8C00040848BF4FF00008E868A96924B2012C9A
:100B9C0025DA30234A1C0B54B8F1010F03DA95F80F
:100BAC003810090702D52E211154521CAA6118EBDA
:100BBC00040FB8BFC8F1000424B26142A0446962BA
:100BCC00B045B8BF464636B2EE613246AB693946DF
:100BDC00181800F0E1F9A8EB0600A862BFE00818AD
:100BEC00A64218DA3246394600F0D6F9A9697118CE
:100BFC00A961A01B6862B8F1010F03DA95F83800FF
:100C0C00000705D5E8682E220A54E869401CE86103
:100C1C00C5F82880A3E02246394600F0BDF9A86942
:100C2C002018361BB8F1010F03DA95F838100907B4
:100C3C0003D5E9682E224254401C36B2A861B04557
:100C4C00B8BF4646EB6836B23246E119C01800F020
:100C5C00A3F9A8693018A861A8EB060068627EE0C9
:100C6C004846612816D14FF0700917E0464504DA62
:100C7C0095F83810090758BFB046B8F1010848BFBD
:100C8C004FF00008B9F1670F14BF4FF045094FF052
:100C9C00650903E0412808BF4FF05009A969E868CD
:100CAC0017F8013B0B544A1CB8F1010F05DA95F803
:100CBC003810090758BFAA6117D52E211154531C9F
:100CCC00AB61B8F1010F10DB761E36B2B045B8BF80
:100CDC00464636B232463946181800F05DF9A86916
:100CEC003018A861A8EB06006862A869E968471883
:100CFC00200007F8019B03D42B2007F8010B03E01D
:100D0C002D2107F8011B444200260DF1080808E0CC
:100D1C000A2200A800F04BFD019808F8010B761C84
:100D2C00009C21B20129F3DA022E06DA49F02000E8
:100D3C00652804BF302007F8010B4EB9302007F8A6
:100D4C00010B07E0761E02A8305C303007F8010B6F
:100D5C00012EF7DAA869E9684018381AE86195F8A5
:100D6C00380000F0140010280DD16869A969081822
:100D7C00696A0818E9690818A96A0818696B884231
:100D8C00BCBF081A286205B0BDE8F083F8B504466C
:100D9C000D4616461F46002004E0E86A401CE86237
:100DAC007F1E002047B116F8011BA868A047A86059
:100DBC000028F2D14FF0FF30F2BD0000686A6C746D
:100DCC007A4C00006E616E004E414E00696E6600FA
:100DDC00494E4600300050F8041B61B150F8042B0A
:100DEC00D30744BFA9F101039A18002342F8043B2E
:100DFC00091FFAD1EFE770470278C9B28A421AB1DB
:100E0C001CBF10F8012FF9E718BF002070470268CB
:100E1C00531C03601170704700F10103810704D06B
:100E2C0010F8011B89B18107FAD10268B2F10131C6
:100E3C00914311F0803F04BF50F8042FF6E710F8EF
:100E4C00011B11B110F8011BFBE7C01A7047010020
:100E5C00C9B2830706D0521E22D310F8013B994227
:100E6C00F7D11FE0083A13D302F1040241EA012141
:100E7C0041EA014150F8043B121F21BF4B40A3F142
:100E8C00013C2CEA030C1CF0803FF3D0C9B2001FCC
:100E9C00083210F8013B521E28BF91EA030FF8D814
:100EAC0018BF0120401E70471B4213D1094236D196
:100EBC002AB18446B0FBF2F002FB10C2704700F07E
:100ECC007DBCFCD30022002370470B0002000021E4
:100EDC0000207047904271EB030CF6D370B5B1FA59
:100EEC0081F4B3FA83F52C1BA340C4F1200532FA2C
:100EFC0005F63343A2405FF00046E64002E05B0893
:100F0C005FEA3202841A71EB030524BF204629469E
:100F1C007641F4D302000B003000002170BD012A91
:100F2C00CFD970B5140C20D0B1FA81F4B2FA82F595
:100F3C00C4F120046419B4F12006D6D3B2405FF09A
:100F4C000044F440002502E052085FEA3303C61A5D
:100F5C0071EB020E24BF3046714664416D41F3D3F0
:100F6C0002000B002000290070BD0C46B1FBF2F111
:100F7C0002FB11452D0445EA1045B5FBF2F402FBCA
:100F8C00145580B240EA0545B5FBF2F002FB105255
:100F9C0040EA044070BD0A0062B38B0708D0521EB1
:100FAC0011F8013B00F8013B00F024808B07F6D1CF
:100FBC00830740F0208000BF103A07D330B4B1E86B
:100FCC003810103AA0E83810F9D230BC530724BFBF
:100FDC00B1E80810A0E8081044BF51F8043B40F8F1
:100FEC00043BD20724BF31F8022B20F8022B44BF5C
:100FFC000B7803707047083A07D3B1E80810083A29
:10100C0040F8043B40F804CBF7D25307E4E730B484
:10101C00436803F0004201211B031B0B436004BF18
:10102C000368002B08D10DE00368DD0F45EA44048A
:10103C0044605B000360491E4468E302F4D523035B
:10104C001B0B436043681A434260084630BC704730
:10105C004FF4001C1CEB410F94BF1CEB430F09E039
:10106C0041EA030C50EA4C0C52EA0C0C03D29942A4
:10107C0008BF9042704714BF8B42824270471000E9
:10108C004FF4001C1CEB410F94BF1CEB430F09E009
:10109C0041EA030C50EA4C0C52EA0C0C03D28B4282
:1010AC0008BF8242704714BF9942904270470100BA
:1010BC0070B504460D466068C0F30A5040F2FF71EB
:1010CC00884207D16068000304BF2068002817D04D
:1010DC00022070BD20B92046FFF799FF012867DA7E
:1010EC00012D0FDB40F2FF71091A8D420AD36068A3
:1010FC00002847BF00202F4900202F49C4E90001D8
:10110C00012070BD4142A942616806DA6FF31E519D
:10111C00401941EA0050606041E0401E63680122C2
:10112C00451962F31F5305F1350001F0004163606E
:10113C00352803D361600020206070BD002215F1BA
:10114C001F0F04DA2268236000202035606068429B
:10115C0013D0521E25689241C0F12003D2439D400A
:10116C0045EAD27225686668C54006FA03F32B433C
:10117C002360636823FA00F0606060680843606075
:10118C00B2F1004F03D80DD12078C0070AD52068E2
:10119C00401C2060206828B96068401C60604FF0DB
:1011AC00FF3070BD6068884204BF20680028F6D10B
:1011BC00002070BD0000F0FF0000F07FF446400DF1
:1011CC0040EAC120490006D200F014F8004248BFA2
:1011DC006FF00040604700F00DF84FF0004188427E
:1011EC008CBF084640426047400D40EAC120490090
:1011FC0080F00D8040F00040490DA1F58061491C44
:10120C0005D4D1F11F0154BFC840C01770474FF02F
:10121C0000007047010040F10980F446404200F0A4
:10122C0005F851F000416047010000BF09D0B0FA49
:10123C0080F18840C91CC1F58461090501EBD021FE
:10124C004005704770B44FF0004591EA030F44BF5E
:10125C006B4000F0B5BA00BF841A71EB030604D2E0
:10126C006E40001BB141121973414FF4001C1CEB72
:10127C00410F34BF7CEB430684E00C0DA4EB1356FA
:10128C00362E7DDC012E43DC45EAC32343EA525360
:10129C0012BFD20292025B08240545EAC12141EA41
:1012AC005051D2EBC020994125D407D1B0FA80F629
:1012BC0010FA06F164D00020203608E0B1FA81F66D
:1012CC00B140C6F1200220FA02F21143B0404FEABD
:1012DC00F474B4EB465434F001064FEA74040AD8A3
:1012EC00D6F50016760D04F00044F04061FA06F2D3
:1012FC005040F1404840C00A40EA415021F00041C2
:10130C0028BF5FEA500550F1000044EBD12137E0D3
:10131C0045EAC323DB0A45EAC121C90AB6F1200517
:10132C000EDD42EA0242120CC5F1200603FA06F663
:10133C00EB4042EA06056D42984161F100010DE077
:10134C0062FA06F5F240554063FA06FC82EA0C029A
:10135C00F3405A406D42904161EB030111F4801F40
:10136C0005D1641E620502D06D004041494121F453
:10137C008011430875F1004350F1000041EB04511A
:10138C0070BC70471CEB410F15D223F0004352EA9E
:10139C0043060BD04FEA4C0CBCEB410F04D80C0DA0
:1013AC00661E342EB7DDEBE7801A994150EA4106F0
:1013BC0008BF0021E4E708BF1CEB430F28BF6FF008
:1013CC000001DDE7B0B581EA030C0CF0004C40F2F3
:1013DC00FF7515EA11541DBF15EA1357AC42AF4205
:1013EC0039E0E41923EA455343F48013C90241F070
:1013FC00004141EA505EC7021100A7FB020200281F
:10140C004FF00000EEFB01204FF00001E3FB072141
:10141C0018BF42F00102401800214941E3FB0E01C4
:10142C00A4F580640F0302D252004041494154F1AB
:10143C0001046CDD470872F1004250F1000051EBE1
:10144C000451A1F580115CBF41EA0C01B0BD4CEA1E
:10145C0005510020B0BD05EA1357AC4214BFAF4292
:10146C0041E050EA410E1CBF52EA430E02E06146D5
:10147C000020B0BD24423C441BD15FEA070EF6D0DD
:10148C00090302BF01460020AEF1140EB1FA81F738
:10149C00AEEB070401FA07FE0C37C7F1200100FA86
:1014AC0007F7C8404EEA000E23EA455343F4801375
:1014BC00A2E733F00043B3FA83F704BFB2FA82FE1B
:1014CC0077440B3FE41BB7F1200E2FBF02FA0EF34B
:1014DC00BB40C7F1200E22FA0EFE38BF43EA0E03C2
:1014EC00BA40641C82E750EA410E14BF52EA430E24
:1014FC006FF000014FF4001717EB430F8ABF19462A
:10150C0017EB410FB5E74CEA05510020B0BDD4F103
:10151C000104B4F120070FDAC4F12007520828BFE8
:10152C0042F0010210FA07F501FA07F7E1BF2A436E
:10153C00E0403843E1400FE0352C98DCC7F1200443
:10154C0052EA400220FA07F218BF42F0010231FAC7
:10155C0007F0A1400A43002172F1004250F1000053
:10156C0051EB0C01B0BD2000F0B540F2FF7581EAE3
:10157C00030C0CF0004C15EA11541DBF15EA13575F
:10158C00AC42AF42E5E0BC41C1F31301C3F313031A
:10159C00801A994143F4801304D2641E40004941DF
:1015AC0080185941C90241EA5051B1FBF3F603FBD3
:1015BC001611A2FB0675D7EBC020A94102D2761EEC
:1015CC0080185941C90241EA5051B1FBF3FE03FBAB
:1015DC001E11A2FB0E75D7EBC020A94103D2AEF1B0
:1015EC00010E80185941890241EA9051760546EA6C
:1015FC008E2EB1FBF3F603FB1611A2FB0675D7EB8F
:10160C008020A94102D2761E80185941C90241EAB4
:10161C0050514EEA060EB1FBF3F603FB1611A2FB7A
:10162C000675D7EBC020A94102D2761E801859410D
:10163C00C90241EA5051B1FBF3F703FB1711A2FBAE
:10164C000735D3EBC020A94167F100070CBF00425E
:10165C0047F0010766F3D5274FEA1E31B80814F599
:10166C00806412DDBD0775F1004250EB0E5051EB5A
:10167C00045111F5801F5CBF41EA0C01F0BD4CF028
:10168C007F6141F0E0410020F0BDBD076D0840EAEC
:10169C000E5041F48011D4F10104B4F120060ADAA1
:1016AC00C4F120060200E04001FA06F3E1401843C1
:1016BC00B24015430EE0342C13DCC6F1200445EA8D
:1016CC0040056D0820FA06F2154321FA06F0A140F8
:1016DC000D43002175F1004250F1000051EB0C015B
:1016EC00F0BD00205FEA0C01F0BDCFB992185B4150
:1016FC00B3FA83F704BFB2FA82F6BF190B3FB7F106
:10170C0020062FBF02FA06F3BB40C7F1200622FACF
:10171C0006F638BF3343BA401CB1E419641E33E7F4
:10172C007F4231F00041B1FA81F404BFB0FA80F687
:10173C00A4190B3CB4F120062FBF00FA06F1A1400E
:10174C00C4F1200620FA06F638BF3143A0403C1BFA
:10175C001AE7AC421ABF05EA1357AF4212E050EA3F
:10176C0041061CBF52EA4306BFE750EA4107304628
:10177C0061461CBF41EA0551F0BD52EA430C08BF5B
:10178C00C143F0BD00204FF4001616EB410F98BF7B
:10179C0016EB430F08BF16EB410F24BFC14305E006
:1017AC0016EB430F0CBF61464CEA0551F0BD91FBA3
:1017BC00F2F303FB1211C0E900317047704740018E
:1017CC00841A71EB030603D2001BB1411219734149
:1017DC004FF4001C1CEB410F34BF7CEB430443E083
:1017EC000C0DA4EB1356352E50DC45EAC323DB0A53
:1017FC0045EAC121C912B6F120050DDD63FA05F6E3
:10180C00EB4086EA0305124218BF45F00105C018EB
:10181C0051F100010CD213E062FA06F5F24055408A
:10182C00F3415A40B340F3405A408018594107D312
:10183C0049085FEA30005FEA350528BF45F001052D
:10184C0001F58011420875F1004250F1000041EBA6
:10185C00045170BC4FF4001C1CEB410F38BF704797
:10186C000020090D090570471CEB410F10D252EAFC
:10187C0043060BD0BCEB410F05D80C0DAB43661ED9
:10188C00342EB5DD02E0AB438018594170BC704773
:10189C0070BC7047F8B505000E0014000027DFF887
:1018AC0074070078002802D01220207020E02878DD
:1018BC00401E03280ED800F09DFC0700300000F0FD
:1018CC0038FBC0B2102808DB380000F097FC0B2066
:1018DC0020700DE0012020700AE0310015F10F009E
:1018EC0000F018FB0500380000F088FC0020207088
:1018FC00F1BD80B500F0CEFC00F010FA00F035FA26
:10190C0000F091FA00F0E2F900F060FD00F04DFA01
:10191C0000F06AFA00F089FD00F0C0FC00F0B8FE9F
:10192C0001BD10B50024DFF854080078012841D11E
:10193C0000F060FC0400DFF8DC060078002806D01C
:10194C00DFF8D0060078401EDFF8C8160870DFF804
:10195C00C406007800282AD1DFF8BC0600780028DD
:10196C0025D100F0C7FADFF818080078DFF8141852
:10197C00097888421BD0DFF808080078DFF80818CF
:10198C0051F82000DFF804180860DFF80008006840
:10199C00806B401CDFF8F41709688863DFF8F007E8
:1019AC000068401CDFF8E817086000F03CFC2000E1
:1019BC0000F024FC10BD80B5DFF8C00700780028CB
:1019CC0019D100F097FADFF8BC07DFF8B4170978E3
:1019DC000170DFF8AC070078DFF8AC1751F8200085
:1019EC00DFF8A8170860DFF89007DFF8A017096880
:1019FC00016000F006FC01BD10B50024022000F0CF
:101A0C00FBFE00F0F7FB0400DFF888070021016003
:101A1C00200000F0F3FB642000F0EEFE00F0EAFB87
:101A2C000400DFF87407DFF86C1709680160DFF851
:101A3C006C0701210170200000F0E0FB10BD38B5EF
:101A4C00002400F07EFC00F0D5FB0400DFF850070A
:101A5C000068401CDFF848170860200000F0CEFB3F
:101A6C00DFF81807007801285ED1DFF83807007816
:101A7C00002803D0022805D002D309E001200CE095
:101A8C0000200AE00120DFF81C1701220A7004E094
:101A9C000120DFF8101700220A70C0B2002843D0D2
:101AAC00DFF80407056820E0002085F8310095F880
:101ABC003000000715D4DFF8F406007895F83610DE
:101ACC000843DFF8E816087095F83400DFF8E016E4
:101ADC00405C95F83510084395F83410DFF8D026A3
:101AEC0088546D69200000F089FB95F832001F289E
:101AFC001AD000F07FFB0400E88D0028F1D0E88DAF
:101B0C00401EE88580B20028EBD195F830003721D3
:101B1C000842C9D095F8300010F0C80085F83000A4
:101B2C00012085F83100C2E731BDF8B50400A07A78
:101B3C00DFF88056405DC0B20519ED7ADFF87466A7
:101B4C00AD5DC0B2EDB215EBC005EDB2DFF8386695
:101B5C0056F825600027F785716296F8301091438E
:101B6C0086F8301086F8313096F83010090713D407
:101B7C00DFF83816097896F836201143DFF82C2652
:101B8C001170C0B2DFF82816415C96F8352011436D
:101B9C00C0B2DFF81C2681542100300000F051F84F
:101BAC00306A002804D0316A300000F063F8F46128
:101BBC002800C0B2F2BDDFF8C0150968C861DFF8B3
:101BCC00B815096891F834100918C97ADFF8A825F6
:101BDC00126892F835201143DFF89C25126892F8B0
:101BEC0034201218D172817ADFF88C25126892F8A1
:101BFC00362011438172DFF88005006890F83400BC
:101C0C00C0B2DFF8AC15415CDFF86C25126892F8B5
:101C1C0035209143C0B2DFF898258154C0B2DFF86B
:101C2C009015405C00280BD1DFF880050078DFF8B8
:101C3C004815096891F836108843DFF8701508705C
:101C4C00704710B490F83420D2B25318DB7A90F865
:101C5C003540A343D2B25418E372D2B25218D27A9E
:101C6C00002A05D18A7A90F8360032EA0000887290
:101C7C0010BC704770B490F8342090F8363090F85F
:101C8C003540086810E0D2B21518ED7AA543D2B2EF
:101C9C001618F572D2B21518ED7A002D02D1857A8C
:101CAC009D438572091D08680028ECD170BC7047F3
:101CBC000021817200F20B00002103E0002202706F
:101CCC00401C491CC9B20429F8DB704780B54FF49D
:101CDC00A071DFF8E40400F0D6F8DFF8DC14DFF8CC
:101CEC00DC24002009E000230B704A603F23CB73F7
:101CFC0000230B7420312032401C80B20928F2DB07
:101D0C0000200870002048603F20C8730020087431
:101D1C00DFF8AC04DFF8A014016001BDDFF880042B
:101D2C0000210160BB4800210170BB4800210170FB
:101D3C00DFF8900400210170DFF8400400210170ED
:101D4C00DFF84C0400210160DFF848040021016039
:101D5C00DFF8740400210160DFF83C04002101600D
:101D6C00DFF83804002101707047DFF840040021CF
:101D7C000170DFF83C14002003E000220A70491CBB
:101D8C00401CC0B20428F8DBDFF8F8030021017016
:101D9C00DFF8EC0300210170DFF8F0030021016093
:101DAC00DFF8D40300210160704710B586B0032022
:101DBC0004900020039080200290DFF81004019022
:101DCC004FF6FF7000901F23DFF8042400210FF260
:101DDC00791000F0D7FD040005AADFF8F8131F20D6
:101DEC0000F03CFE06B010BD10B586B00320049088
:101DFC000020039080200290DFF8DC0301904FF666
:101E0C00FE7000901E23DFF8D42300210FF2551032
:101E1C0000F0B8FD040005AADFF8C4131E2000F082
:101E2C001DFE06B010BD80B54FF4FD61DFF8B403A4
:101E3C0000F029F88021DFF8500300F024F8DFF8D7
:101E4C00A413DFF8A423002009E04A613F2381F8A2
:101E5C004C30002381F84D305C315C32401CC0B2F8
:101E6C001528F2D3002048613F2081F84C00002057
:101E7C0081F84D00CC4800210160DFF87003DFF8D9
:101E8C006413016001BD03E000220270401C491E76
:101E9C0089B20029F8D1704710B5002400F0AAF9D6
:101EAC0004005C480078002820D15B4800780028AA
:101EBC001CD100F01FF8B2480078B249097888426A
:101ECC0014D0AF480078B04951F82000AF490860F1
:101EDC00AE480068806B401CAC4909688863AC480C
:101EEC000068401CAA49086000F099F9200000F035
:101EFC0085F910BDAD480078AE49405CC0B2010018
:101F0C00C9B2AB4A895CAB4A895C11EBC0009C49F5
:101F1C0008707047002204E00B780370491C401CC9
:101F2C00521C0B78002BF7D1002101701000C0B2AD
:101F3C007047002101E0401C491C0278002AFAD1AC
:101F4C000800C0B27047000080B5002000F052F9C4
:101F5C0090490968491C8F4A116000F04FF900F054
:101F6C00A2F9F3E780B5002002E0C82000F044FCA1
:101F7C008A4800780028F8D0874800686421B0FBB4
:101F8C00F1F08549086084480068002805D198481C
:101F9C0000210170FF2000F0E7FD00F02BF98A49C9
:101FAC007C4A12680A607B4900220A6000F026F91C
:101FBC008548006878490968B0FBF1F0D0F16400FD
:101FCC008B49087000F073F900F004F8642000F0FD
:101FDC0013FCE2E71CB5002417E000A92000C0B2F6
:101FEC0000F07EFDC0B200280ED1E4B2664850F875
:101FFC002400002808D0012806D0C168826812EBA2
:10200C008101416401998164641CE4B2202CE4DBFD
:10201C0013BD0000A4260020A52600202DE9F24FB8
:10202C00050016001F00DDF82880DDF82C900C9CB4
:10203C005FF0000A00F0DEF882466C48D0F800B081
:10204C00BBF1000F00F09280DBF8140067490860C8
:10205C00504600F0D3F80098CBF800008BF83250C3
:10206C0000208BF8300000208BF831000020ABF8FA
:10207C002E00CBF80490CBF80C80CBF80860ABF8B2
:10208C001040ABF8127000208BF83700EDB2E80866
:10209C008BF8340015F007008BF8330001209BF906
:1020AC00341088408BF8360001209BF9331088409F
:1020BC008BF835000020CBF81C000020CBF820005A
:1020CC000020CBF828000020CBF824000020CBF80F
:1020DC0038000020CBF840000020CBF83C0000205A
:1020EC00CBF844000020CBF848003F208BF84C0084
:1020FC0000208BF84D00584600F01FF9584600F0B0
:10210C00CEF800F077F88246EDB21F4840F825B0C3
:10211C0025480068CBF814000020CBF818002248A2
:10212C000068002803D020480068C0F818B01E488A
:10213C00C0F800B01D4800789BF8361008431B49C6
:10214C0008709BF834001A49405C9BF83510084322
:10215C009BF83410164A88541A480078401C1949C8
:10216C000870504600F04AF8002003E0504600F09A
:10217C0045F84220BDE8F28F78260020A9260020E1
:10218C00A7260020A62600209C25002080260020C3
:10219C005C2600207426002068260020A326002040
:1021AC0088260020AB26002084260020A8260020AC
:1021BC0070260020D03A0008282300204823002055
:1021CC0060260020AA2600206C260020281F002054
:1021DC0024210020803D0008281D0020241F002001
:1021EC00903D0008001000205C1000207C26002090
:1021FC00A2260020EFF3108072B6704780F310888F
:10220C0070471B48FF210170002080F30988194892
:10221C000121017018481949016062B6FEE71648A1
:10222C00164901607047144814490160704772B632
:10223C00EFF3098028B1203880E8F00F10490968C5
:10224C00086000B50F4880475DF804EB0E480F4955
:10225C000A7802700A480E490A680260106890E811
:10226C00F00F203080F309884EF0040E62B67047F0
:10227C0022ED00E0A926002004ED00E00000001093
:10228C00782600203F230008A6260020A726002041
:10229C00802600204848002101807047704780B597
:1022AC0000F04DFE01BD80B500F04AFE01BD80B5C9
:1022BC0000F047FE01BD030010005FF08072026069
:1022CC00001F0360001F7FF001020260001F5FF01F
:1022DC0012320260001F5FF003320260001F5FF0D9
:1022EC0002320260001F5FF001320260001F0160C9
:1022FC00001F5FF011310160001F5FF010310160B1
:10230C00001F5FF009310160001F5FF008310160B0
:10231C00001F5FF007310160001F5FF006310160A4
:10232C00001F5FF005310160001F5FF00431016098
:10233C00704780B500F006FE01BD80B500F003FECD
:10234C0001BD80B500F000FE1B480088401C1A49F6
:10235C00088019480088642804DB17480021018094
:10236C0000F05CF801BD80B5FFF744FF1349097814
:10237C00491C124A1170FFF741FFFFF760FBFFF792
:10238C00D0FA01BD80B500F01EFE4FF47A71B0FB9F
:10239C00F1F0401E0A4908600A48FF2101700A4802
:1023AC00006850F00500084908600748006850F0C4
:1023BC0002000549086001BDA0260020A4260020CB
:1023CC0014E000E023ED00E010E000E080B58C218B
:1023DC001048FFF758FD0F490F4A002009E0002371
:1023EC000B704A603F238B720023CB721C311C3262
:1023FC00401C80B20428F2DB0020087000204860EA
:10240C003F2088720020C87201480249016001BD5A
:10241C0064260020102500202C25002080B58F4834
:10242C00006800F0EFFEC0B202BD80B54FF45071F1
:10243C008E48FFF728FD40218D48FFF724FD8B497E
:10244C008C4A00200EE064230B70002381F831309D
:10245C00CA603F2381F82030002381F821303431C9
:10246C003432401C80B20F28EDDB64200870002051
:10247C0081F831000020C8603F2081F82000002046
:10248C0081F8210074480021016076480021018008
:10249C00754810210180724874490160012000F0D8
:1024AC000FFE75490860002000F00AFE6B490860B9
:1024BC0000AA724970480068FFF7ECF900AA70494D
:1024CC0066480068FFF7E6F900F001F801BD10B5A9
:1024DC0086B003200490002003908020029069486D
:1024EC0001904FF6FD7000901D23674A00210FF2FA
:1024FC00ED0000F047FA040005AA64491D2000F025
:10250C00ADFA06B010BD032280F83120C9B2012902
:10251C0005D1C169504A1268511841610DE08169B9
:10252C00002905D1C1694C4A12685118416104E077
:10253C008169494A12685118416142690823B2FB0A
:10254C00F3F101FB132189B2494A12EBC102116864
:10255C00002905D110600021C1600121918006E0A5
:10256C0011681060C16008619188491C918000213C
:10257C000161704742690823B2FBF3F101FB13219F
:10258C0089B23B4A12EBC1031968814206D1C1687A
:10259C001960002908D000220A6105E00169C268AF
:1025AC00CA60002A00D01161012180F8311000218D
:1025BC00C160002101619888401E9880704780B5E9
:1025CC0000AA00212C48006800F0A2FD01BD80B5D6
:1025DC002948006800F016FE01BD000038B501E086
:1025EC00FFF7F5FF00AA00211C48006800F090FDE1
:1025FC00FFF7E5FF18480068401C174908601648AB
:10260C0001680822B1FBF2F000FB121080B21849ED
:10261C0011EBC000046803E0022084F831002C00A8
:10262C00002CDDD0E5680C48006861698842F6D161
:10263C0062681000002802D0A1682000904720009A
:10264C00FFF798FF94F830000228E5D10121200013
:10265C00FFF759FFE3E700008C26002094260020AA
:10266C00982600209E2600209C260020E81700209B
:10267C001C2600201C18002090260020CC3D0008B1
:10268C00D83D00082821002024230020A03D00086C
:10269C002C482D4908002D4908002D4908002D49CA
:1026AC0008002D4908002D4908002D4908002D4926
:1026BC0008002D4908002D4908002D4908002D4916
:1026CC0008002D4908002D4908002D4908002D4906
:1026DC0008002D4908002D4908002D4908002D49F6
:1026EC0008002D4908002D4908002D4908002D49E6
:1026FC0008002D4908002D4908002D4908002D49D6
:10270C0008002D4908002D4908002D4908002D49C5
:10271C0008002D4908002D4908002D4908002D49B5
:10272C0008002D4908002D4908002D4908002D49A5
:10273C0008002D4908002D4908002D4908002D4995
:10274C00080070475A0E00080C3E0008A20F000843
:10275C008A100008BA10000872150008CA17000881
:10276C00562F0008FE360008C6390008CE3A00087D
:10277C00123D00081E3D0008143E0008163E0008DD
:10278C00183E00081A3E00081C3E00081E3E0008B9
:10279C00203E0008223E0008243E0008263E000889
:1027AC00283E00082A3E00082C3E00082E3E000859
:1027BC00303E0008323E0008343E0008363E000829
:1027CC00383E00083A3E00083C3E00083E3E0008F9
:1027DC00403E0008423E0008443E0008463E0008C9
:1027EC00483E00084A3E00084C3E00084E3E000899
:1027FC00503E0008523E000810B50400002030493D
:10280C000978002928D1A4B2002C25D0FFF7F2FCBE
:10281C002C49096891F83410C9B22B4A8A5C294BAF
:10282C001B6893F835309A43C9B2274BCA54C9B2C6
:10283C00254A895C002908D124490978214A126863
:10284C0092F836209143214A11701E490968CC85B3
:10285C00FFF7D4FCFFF720FB10BD38B5184C2478DB
:10286C00002C01D0552029E0C0B24FF46164C9B2EC
:10287C003C25694304FB0010D2B210184FF47A7156
:10288C009BB24FF47A7202FB03F24FF47A73B2FBF1
:10289C00F3F201FB0020040C80B280B2FFF7ACFF16
:1028AC0008E04FF40040FFF7A7FF4FF40040FFF79C
:1028BC00A3FF641EA4B2002CF3D1002032BD000093
:1028CC00A42600207826002070260020A8260020B0
:1028DC002DE9F04184B006000F0090461C00002545
:1028EC00FFF788FC0500DFF838030078002804D0D7
:1028FC002800FFF783FC3C2041E0E4B2DFF80C0336
:10290C0050F82400002836D1E4B2DFF8000301218E
:10291C0040F824102800FFF771FC002342463900D0
:10292C003000FFF7C8FC0021029100210191002129
:10293C0000910023002201002000C0B2FFF76EFBC3
:10294C000600F6B2002E07D1DFF8D002007801287D
:10295C000ED1FFF7A1FA0BE0FFF74CFC0500E4B237
:10296C00DFF8A802002140F824102800FFF746FCED
:10297C003000C0B203E02800FFF740FC282004B070
:10298C00BDE8F0812DE9F14F84B00E001700984698
:10299C000E9CDDF844900025FFF72CFC0500DFF8B9
:1029AC0080020078002804D02800FFF727FC3C2088
:1029BC0051E05FFA88F8DFF8540250F8280000283C
:1029CC0045D15FFA88F8DFF84402012140F828105D
:1029DC002800FFF713FCDDF83CA0DDF840B0129D99
:1029EC002A0092B25946504600F01CF92B009BB2BB
:1029FC003A0031000498FFF75EFCADB20295CDF8B9
:102A0C000490CDF800B023009BB252460100404622
:102A1C00C0B2FFF703FB0400E4B2002C07D1DFF8CF
:102A2C00FC01007801280FD1FFF736FA0CE0FFF714
:102A3C00E1FB05005FFA88F8DFF8D001002140F8CF
:102A4C0028102800FFF7DAFB2000C0B203E02800B2
:102A5C00FFF7D4FB282005B0BDE8F08FF8B50700D0
:102A6C000E00140000256E480078002802D01220B9
:102A7C00207034E0FFF7BEFB0500FFB2FF2F03D13F
:102A8C006348006890F83270FFB2604850F82770C5
:102A9C00002F05D12800FFF7B1FB432020701EE06A
:102AAC00012F05D12800FFF7A9FB4320207016E069
:102ABC003000FFF73EFAC0B2102805DB2800FFF704
:102ACC009DFB412020700AE0310017F14C00FFF70C
:102ADC0021FA06002800FFF791FB00202070F1BDC1
:102AEC002DE9F04106000C0000250020206000209C
:102AFC006060FFF77FFB0500F6B2FF2E03D1444860
:102B0C00006890F83260F6B2404850F82600002871
:102B1C0004D12800FFF772FB432023E0012804D1E5
:102B2C002800FFF76BFB43201CE0017CC90704D491
:102B3C002800FFF763FB452014E00027C668D0F897
:102B4C0008802800FFF75AFB00E07F1C404610F17C
:102B5C00040800680028F8D0B8002060F01B800042
:102B6C0060600020BDE8F08170B506000024FFF71E
:102B7C0041FB0400F6B2FF2E05D12548006890F801
:102B8C003260012509E02248006890F83200F6B264
:102B9C00864201D1012500E00025F6B21B4850F811
:102BAC002600002804D12000FFF728FB48202CE049
:102BBC00012804D12000FFF721FB432025E090F8E9
:102BCC003410C9B2134A8A5C90F835309A43C9B2B2
:102BDC00104BCA54C9B20F4A895C002906D10E4960
:102BEC00097890F8362091430B4A117090F8301008
:102BFC0051F0080180F830102000FFF7FFFAEDB219
:102C0C00012D01D1FFF748F9002070BD9C25002053
:102C1C007826002070260020A8260020A926002057
:102C2C00A4260020D30708D5920704D405E0491E3A
:102C3C0000220260001D0029F9D1704780B59C4923
:102C4C0009880906FBD59B49C0B20880C0B20A2886
:102C5C0002D10D20FFF7F2FF01BD10B5040003E017
:102C6C002078FFF7EBFF641C20780028F8D110BD0A
:102C7C0000B585B05FF4E13000900020ADF80400A1
:102C8C000020ADF806000020ADF808000020ADF8DB
:102C9C000C000C20ADF80A0000A9854800F0E0FA01
:102CAC000121834800F02AFB05B000BD80B501214D
:102CBC00042000F04EFC01214FF4804000F049FC50
:102CCC004FF40070ADF8000003208DF802001820BE
:102CDC008DF8030000A9784800F09EFC4FF480604A
:102CEC00ADF8000004208DF8030000A9724800F034
:102CFC0093FC01BD80B5FFF7D9FFFFF7B9FF6F4813
:102D0C00FFF7ABFF00F0F6FC6D48FFF7A6FFFEF7F0
:102D1C00F0FD6C48FFF7A1FF05236B4A00210FF271
:102D2C002500FFF7D5FD8DF8000000AA67490320A8
:102D3C00FFF794FEFEF73FFE6548FFF78EFF00207D
:102D4C0002BD000000B5A1B06248FFF786FF00F09D
:102D5C00FDF8FFF7ABFFFFF78BFF01225E4900A8E0
:102D6C0000F0CCFD00A8FFF778FFFFF70BFB5B48EA
:102D7C00FFF773FFFEF740FE002000F03CF900F077
:102D8C0081F85748FFF769FF0823564A56490FF256
:102D9C008910FFF79DFDC0B20200544900A800F055
:102DAC00ADFD00A8FFF759FF0923514A51490FF215
:102DBC007D10FFF78DFDC0B202004F4900A800F056
:102DCC009DFD00A8FFF749FF4C4802784C4900A82C
:102DDC0000F094FD00A8FFF740FF4A4802784A49EA
:102DEC0000A800F08BFD00A8FFF737FF47480268EA
:102DFC00474900A800F082FD00A8FFF72EFF4348CA
:102E0C00002101600023012200210020FFF725FD95
:102E1C00DAE780B501215FF0804000F0CAFD0120A7
:102E2C0000F00BF901BDE0B540F2AF40ADF8040085
:102E3C004EF65F20ADF800000020ADF80600002033
:102E4C00ADF8020000208DF8080000A95FF080406A
:102E5C0000F06EFD01215FF0804000F089FD012241
:102E6C004EF65F215FF0804000F09CFD01215FF089
:102E7C00804000F09AFD012201215FF0804000F0BB
:102E8C0085FD07BD80B50121012000F072FB1C20DF
:102E9C008DF8000001208DF8030000A800F08EFDD5
:102EAC001C491C2000F02AFCFFF7BDFF01BD0000EF
:102EBC00003801400438014000080140703D000812
:102ECC00643C0008343D0008241D0020C03D00086F
:102EDC00483D0008483C00087C3C0008083C0008C1
:102EEC00943C0008FC070020FC3D0008AC3C0008AA
:102EFC00FC0F0020043E0008C43C0008AA26002059
:102F0C00DC3C0008A22600205C3D00085C2600206A
:102F1C00283C00081F2E000810B504002000FFF705
:102F2C009CFE0520FFF768FCF8E7000010B50400D4
:102F3C002000FFF792FE0220FFF75EFCF8E77047D7
:102F4C0070477047704770477047010080B500F0BC
:102F5C00E3F95FF4803000F00EFA00F036FA00204E
:102F6C0000F06EFA002000F07FFA4FF4806000F061
:102F7C0071FA4FF4004000F082FA022000F072FD6A
:102F8C00102000F07BFD5FF480115FF4803000F0C6
:102F9C0039FA012000F041FA392000F0FAFA002841
:102FAC00FAD0022000F03DFA00F045FA0828FBD1D7
:102FBC0000F00DF801BD00B585B000A800F069FA6D
:102FCC00019805B000BD80B5FFF7F5FF02BD80B5D7
:102FDC000121082000F0BDFA4FF44870ADF8000054
:102FEC0003208DF8020010208DF8030000A933484F
:102FFC0000F012FB01BD80B5C0B2002805D002283C
:10300C000FD008D3032811D016E04FF448712B4889
:10301C0000F069FB10E04FF40071284800F063FBEE
:10302C000AE02021254800F05EFB05E04FF480719A
:10303C00224800F058FBFFE701BD10B504001F4803
:10304C0000F04EFBE4B2002C05D0022C1BD00CD3AC
:10305C00032C24D031E00120FFF7EFFF0220FFF713
:10306C00ECFF0320FFF7E9FF27E0800505D44FF4C0
:10307C000071124800F037FB04E04FF400710F4868
:10308C0000F034FB19E0800604D420210B4800F03A
:10309C002AFB03E02021094800F028FB0DE0C005C5
:1030AC0005D44FF48071054800F01DFB04E04FF48B
:1030BC008071024800F01AFBFFE710BD000C0140C4
:1030CC0038B5040000204B490978002901D00020B4
:1030DC001DE0FFF78FF848490D684749096800293A
:1030EC0004D0454909684968434A1160FFF786F8DE
:1030FC00002D0BD0032028702C81002068603F200D
:10310C00E873002028742800FEF7D2FD280032BD99
:10311C00F8B505000E00140000272878032802D00B
:10312C000120207064E033480078002802D002208F
:10313C0020705DE031480078002802D00D2020700E
:10314C0056E0FFF757F807002889002808D028898F
:10315C00401E28813800FFF751F80020207047E00E
:10316C002748006890F8300050F0010024490968A5
:10317C0081F8300022480068002180F83110204886
:10318C000068C6852800FEF716FD3800FFF736F8F4
:10319C00FEF782FEFFF72EF807001948006890F83A
:1031AC003100002802D0022803D005E00020207056
:1031BC0009E00E20207006E0290011480068FEF797
:1031CC0040FD0A2020700E480068002180F8301065
:1031DC000B480068002180F8311009480068002174
:1031EC00C16107480068002101623800FFF706F84A
:1031FC00F1BD0000A426002060260020A52600209A
:10320C007826002038B5050000242878032801D042
:10321C00012024E0FEF7EEFF0400A87A00280DD070
:10322C000023012200212800FEF77FFC050020006E
:10323C00FEF7E4FFFEF730FE002010E028894FF681
:10324C00FF71884207D02889401C28812000FEF796
:10325C00D5FF002003E02000FEF7D0FF322032BD66
:10326C002DE9F04385B004000D0000200026002756
:10327C005FF000085FF00009A146218A08004CF6B7
:10328C00FF710840E98808432082A0894EF6F311AB
:10329C000840A9882A8911436A8911430843A081EF
:1032AC00A08A4FF6FF410840A9890843A08200A8D4
:1032BC0000F0EFF81048814501D1039E00E0029E1A
:1032CC00192000FB06F029688900B0FBF1F7642097
:1032DC00B7FBF0F000010109642202FB11785FEAF0
:1032EC00081132316422B1FBF2F111F00F010843E5
:1032FC00208105B0BDE8F08300380140C9B2002937
:10330C0004D0818951F40051818104E081894DF60A
:10331C00FF72114081817047DFF8BC02006850F0E9
:10332C000100DFF8B4120860DFF8B0020068DFF8C3
:10333C00B0120840DFF8A4120860DFF89C020068A5
:10334C00DFF8A0120840DFF890120860DFF888025E
:10335C00006830F48020DFF880120860DFF87C020F
:10336C00006830F4FE00DFF874120860DFF87802B1
:10337C00002101607047DFF86012096831F4803178
:10338C00DFF854221160DFF85012096831F4802103
:10339C00DFF844221160B0F5803F03D0B0F5802FE8
:1033AC0009D011E0DFF83002006850F48030DFF80B
:1033BC002812086008E0DFF82002006850F4A02012
:1033CC00DFF814120860FFE7704780B5002000900A
:1033DC0000200021312000F0DCF801000098401C96
:1033EC000090C9B2002903D10098B0F5A06FF1D1BB
:1033FC00312000F0CEF8002801D0012000E00020A0
:10340C00C0B202BD0022754B1B681A0032F47C124C
:10341C00084302437148026070477449C0B20860A7
:10342C00704700216D4A1268110089088900014318
:10343C006A48016070476948006810F00C007047DA
:10344C000021664A1268110031F0F0010143634813
:10345C00016070470021614A1268110031F4E0618B
:10346C0001435E480160704700215C4A12681100FC
:10347C0031F4605151EAC001584801607047002195
:10348C00564A1268110031F440410143534801601F
:10349C00704730B400220021002300244F4D2D68CA
:1034AC0015F00C052A00002A04D0042A05D0082A9D
:1034BC0006D021E04F49016020E04F4901601DE03A
:1034CC004649096811F47011890C891C434A126829
:1034DC0012F48033002B03D1484A514301600AE0B7
:1034EC003E4A1268920303D5454A5143016002E0FB
:1034FC00414A5143016001E03E4901603749096886
:10350C0011F0F00212093F49545C0168E14041603E
:10351C003249096811F4E062120A3A49545C416874
:10352C00E14081602D49096811F46052D20A354995
:10353C00545C4168E140C1602849096811F440427B
:10354C00920B3149545CC168B1FBF4F1016130BCA0
:10355C007047C9B2002905D02C49096808432B498A
:10356C00086005E02949096831EA0000274908602C
:10357C007047C9B2002905D0254909680843244978
:10358C00086005E02249096831EA0000204908601A
:10359C00704710B4002200230021C0B24409E4B2E9
:1035AC002200012A02D10C490B6806E0022A02D142
:1035BC000F490B6801E017490B68C0B210F01F02ED
:1035CC0033FA02F0C00701D5012100E00021080008
:1035DC00C0B210BC70470000001002400410024042
:1035EC000000FFF8FFFFF6FE0810024060004242A8
:1035FC002010024000127A00001BB70000093D00A9
:10360C00808D5B00B03D0008103E00081810024091
:10361C001C10024024100240F0B4002200260024AA
:10362C0000250023002791F803C01CF00F0C624604
:10363C0091F803C05FEACC6C01D58B781A430B78F8
:10364C001B0621D00368002406E0CD78482D02D15A
:10365C000125A5400561641C082C14D20125A54048
:10366C000E882E40AE42F6D1A5000F2616FA05F7AD
:10367C00BB4312FA05F52B43CD78282DE5D1012556
:10368C00A5404561E7E703600B88FF2B26DD436807
:10369C00002420E0012514F10806B5400E882E40C8
:1036AC00AE4217D1A5000F2616FA05F7BB4312FA46
:1036BC0005F52B43CD78282D04D1012514F10806EE
:1036CC00B5404561CD78482D04D1012514F108068B
:1036DC00B5400561641C082CDCD34360F0BC70471A
:1036EC00C06880B2704789B20161704789B241618C
:1036FC0070471C0080B500F0CFF901BD38B504004F
:10370C000D002A2C06D200F0CBF97A4941F824504E
:10371C0000F0CAF931BD80B5002000F0D3F801BD2E
:10372C0080B5012000F0CEF801BD80B5022000F07C
:10373C00C9F801BD80B5032000F0C4F801BD80B507
:10374C00042000F0BFF801BD80B5052000F0BAF8E8
:10375C0001BD80B5062000F0B5F801BD80B507208D
:10376C0000F0B0F801BD80B5082000F0ABF801BD49
:10377C0080B5092000F0A6F801BD80B50A2000F044
:10378C00A1F801BD80B50B2000F09CF801BD80B5FF
:10379C000C2000F097F801BD80B50D2000F092F8D8
:1037AC0001BD80B50E2000F08DF801BD80B50F2055
:1037BC0000F088F801BD80B5102000F083F801BD41
:1037CC0080B5112000F07EF801BD80B5122000F00C
:1037DC0079F801BD80B5132000F074F801BD80B5F7
:1037EC00142000F06FF801BD80B5152000F06AF8C8
:1037FC0001BD80B5162000F065F801BD80B517201D
:10380C0000F060F801BD80B5182000F05BF801BD38
:10381C0080B5192000F056F801BD80B51A2000F0D3
:10382C0051F801BD80B51B2000F04CF801BD80B5EE
:10383C001C2000F047F801BD80B51D2000F042F8B7
:10384C0001BD80B51E2000F03DF801BD80B51F20E4
:10385C0000F038F801BD80B5202000F033F801BD30
:10386C0080B5212000F02EF801BD80B5222000F09B
:10387C0029F801BD80B5232000F024F801BD80B5E6
:10388C00242000F01FF801BD80B5252000F01AF8A7
:10389C0001BD80B5262000F015F801BD80B52720AC
:1038AC0000F010F801BD80B5282000F00BF801BD28
:1038BC0080B5292000F006F801BD80B52A2000F063
:1038CC0001F801BD10B5040000F0EAF80A490978C6
:1038DC00491C094A117000F0E7F82A2C06D2054859
:1038EC0050F824000100002900D08047FEF719F899
:1038FC0010BD000068240020A42600200CB41CB5C8
:10390C00044604A801900A46009401AB00A907489C
:10391C0078441830FCF7E4FB009900220A70002868
:10392C005CBF0098001B16BC5DF80CFBE3D4FFFFDA
:10393C0010B4028812F08F0202800288CB884C8867
:10394C0023431A4302808A8882850A8802850122D1
:10395C008282054A904202D0044A904201D1097AEF
:10396C00018610BC70470000002C0140003401405F
:10397C00C9B2002904D0018851F00101018004E092
:10398C00018840F2FE32114001807047D2B2002A09
:10399C0003D082891143818103E0828932EA0101DB
:1039AC008181704701858282704789B2C943018247
:1039BC00704789B2C94301827047140070B400216A
:1039CC000022002300240F25C678002E35D0234971
:1039DC00096811F4E061D1F5E061090AD1F1040440
:1039EC00CD404178A14082782A40114309010278E8
:1039FC0012F00302D2B2D200914002789210164B10
:103A0C0053F82220FF23047814F00304E4B2E400FA
:103A1C00A3409A4319400A43017889100E4B43F88E
:103A2C002120017849110E4A0123007810F01F0063
:103A3C0013FA00F042F821000AE001784911054A16
:103A4C000123007810F01F0013FA00F042F8210057
:103A5C0070BC704780E100E000E400E00CED00E099
:103A6C0000E100E00B49096811F03801094A1160C6
:103A7C0008490968084307490860704705490968FF
:103A8C0031F01001034A11600249096808430149E9
:103A9C00086070470020024072B6704762B67047EB
:103AAC00EFF3108072B6704780F310887047B0FA4D
:103ABC0080F0704790FAA0F0704730BF704720BF7D
:103ACC007047020000000100020001000300010029
:103ADC0002000100040001000200010003000100CB
:103AEC0002000100050001000200010003000100BA
:103AFC0002000100040001000200010003000100AB
:103B0C000200010006000100020001000300010098
:103B1C00020001000400010002000100030001008A
:103B2C000200010005000100020001000300010079
:103B3C00020001000400010002000100030001006A
:103B4C000200010007000100020001000300010057
:103B5C00020001000400010002000100030001004A
:103B6C000200010005000100020001000300010039
:103B7C00020001000400010002000100030001002A
:103B8C000200010006000100020001000300010018
:103B9C00020001000400010002000100030001000A
:103BAC0002000100050001000200010003000100F9
:103BBC0002000100040001000200010003000100EA
:103BCC000200010010B5074979441831064C7C44B9
:103BDC00163404E00A68081D511888470146A142B2
:103BEC00F8D110BD0800000014000000EBD1FFFF5D
:103BFC00AC26000000000020000000000A4F535FBC
:103C0C004350555F5379735469636B496E697428DB
:103C1C002920646F6E65210A00000000436F6E74EA
:103C2C006578742053776974636865732070657266
:103C3C0020536563203A202535640A000A417070D0
:103C4C005F5461736B5374617274282920737461AF
:103C5C007274210A000000000A4253505F496E74CE
:103C6C00446973416C6C282920646F6E65210A00CD
:103C7C000A4253505F496E6974282920646F6E653F
:103C8C005F2564210A0000000A4D7954494D325FCA
:103C9C00496E6974282920446F6E65210A00000062
:103CAC000A5461736B3120437265617465286572C7
:103CBC00723A2564290A00000A5461736B3220435E
:103CCC007265617465286572723A2564290A000070
:103CDC000A52756E6E696E67205461736B203A20C0
:103CEC002535640A0000000000F009F8002801D016
:103CFC00FFF768FF0020FEF7FDFF00F002F801203F
:103D0C00704700F001B805000746384600F002F88D
:103D1C00FBE7100080B5C046C046024A11001820CF
:103D2C00ABBEFBE7260002000A4F53496E697428AC
:103D3C002920646F6E65210A000000000A4F53535E
:103D4C0074617274282920646F6E65210A0000006A
:103D5C00437075205573616765203A202533640ADA
:103D6C00000000000A6D61696E2073746172742129
:103D7C000A00000075432F4F532D49492049646CAC
:103D8C006500000075432F4F532D49492053746132
:103D9C007400000075432F4F532D494920546D7208
:103DAC0000000000000000000102030401020304F3
:103DBC00060708095374617274205461736B000018
:103DCC004F532D546D724C6F636B00004F532D5439
:103DDC006D72536967000000FEE7FEE7FEE7FEE741
:103DEC00FEE7FEE7C046C046C046C046FFF77CFF74
:103DFC005461736B310000005461736B320000002E
:103E0C0078563412020406081F0001000000050059
:103E1C00100000000000000004000000040000007E
:103E2C0004000100040001000100010080000100F9
:103E3C0016001000010080000100010020005C0051
:083E4C00E80301001E016E0EE7
:0400000508003DF1C1
:00000001FF
